{
    "abi": [
        {
            "type": "constructor",
            "inputs": [],
            "stateMutability": "nonpayable"
        },
        {
            "type": "function",
            "name": "addTagType",
            "inputs": [
                {
                    "name": "ids",
                    "type": "uint256[]",
                    "internalType": "uint256[]"
                },
                {
                    "name": "tagTypes",
                    "type": "bytes32[]",
                    "internalType": "bytes32[]"
                }
            ],
            "outputs": [],
            "stateMutability": "nonpayable"
        },
        {
            "type": "function",
            "name": "balanceOf",
            "inputs": [
                {
                    "name": "account",
                    "type": "address",
                    "internalType": "address"
                },
                {
                    "name": "id",
                    "type": "uint256",
                    "internalType": "uint256"
                }
            ],
            "outputs": [
                {
                    "name": "",
                    "type": "uint256",
                    "internalType": "uint256"
                }
            ],
            "stateMutability": "view"
        },
        {
            "type": "function",
            "name": "balanceOfBatch",
            "inputs": [
                {
                    "name": "accounts",
                    "type": "address[]",
                    "internalType": "address[]"
                },
                {
                    "name": "ids",
                    "type": "uint256[]",
                    "internalType": "uint256[]"
                }
            ],
            "outputs": [
                {
                    "name": "",
                    "type": "uint256[]",
                    "internalType": "uint256[]"
                }
            ],
            "stateMutability": "view"
        },
        {
            "type": "function",
            "name": "idToTagType",
            "inputs": [
                {
                    "name": "",
                    "type": "uint256",
                    "internalType": "uint256"
                }
            ],
            "outputs": [
                {
                    "name": "",
                    "type": "bytes32",
                    "internalType": "bytes32"
                }
            ],
            "stateMutability": "view"
        },
        {
            "type": "function",
            "name": "isApprovedForAll",
            "inputs": [
                {
                    "name": "account",
                    "type": "address",
                    "internalType": "address"
                },
                {
                    "name": "operator",
                    "type": "address",
                    "internalType": "address"
                }
            ],
            "outputs": [
                {
                    "name": "",
                    "type": "bool",
                    "internalType": "bool"
                }
            ],
            "stateMutability": "view"
        },
        {
            "type": "function",
            "name": "isRevoked",
            "inputs": [
                {
                    "name": "",
                    "type": "address",
                    "internalType": "address"
                },
                {
                    "name": "",
                    "type": "address",
                    "internalType": "address"
                },
                {
                    "name": "",
                    "type": "uint256",
                    "internalType": "uint256"
                }
            ],
            "outputs": [
                {
                    "name": "",
                    "type": "bool",
                    "internalType": "bool"
                }
            ],
            "stateMutability": "view"
        },
        {
            "type": "function",
            "name": "isTagged",
            "inputs": [
                {
                    "name": "",
                    "type": "address",
                    "internalType": "address"
                },
                {
                    "name": "",
                    "type": "address",
                    "internalType": "address"
                },
                {
                    "name": "",
                    "type": "uint256",
                    "internalType": "uint256"
                }
            ],
            "outputs": [
                {
                    "name": "",
                    "type": "bool",
                    "internalType": "bool"
                }
            ],
            "stateMutability": "view"
        },
        {
            "type": "function",
            "name": "mintAddressTagSBT",
            "inputs": [
                {
                    "name": "target",
                    "type": "address",
                    "internalType": "address"
                },
                {
                    "name": "id",
                    "type": "uint256",
                    "internalType": "uint256"
                }
            ],
            "outputs": [],
            "stateMutability": "nonpayable"
        },
        {
            "type": "function",
            "name": "owner",
            "inputs": [],
            "outputs": [
                {
                    "name": "",
                    "type": "address",
                    "internalType": "address"
                }
            ],
            "stateMutability": "view"
        },
        {
            "type": "function",
            "name": "renounceOwnership",
            "inputs": [],
            "outputs": [],
            "stateMutability": "nonpayable"
        },
        {
            "type": "function",
            "name": "revokeAddressTagSBT",
            "inputs": [
                {
                    "name": "target",
                    "type": "address",
                    "internalType": "address"
                },
                {
                    "name": "id",
                    "type": "uint256",
                    "internalType": "uint256"
                }
            ],
            "outputs": [],
            "stateMutability": "nonpayable"
        },
        {
            "type": "function",
            "name": "safeBatchTransferFrom",
            "inputs": [
                {
                    "name": "from",
                    "type": "address",
                    "internalType": "address"
                },
                {
                    "name": "to",
                    "type": "address",
                    "internalType": "address"
                },
                {
                    "name": "ids",
                    "type": "uint256[]",
                    "internalType": "uint256[]"
                },
                {
                    "name": "amounts",
                    "type": "uint256[]",
                    "internalType": "uint256[]"
                },
                {
                    "name": "data",
                    "type": "bytes",
                    "internalType": "bytes"
                }
            ],
            "outputs": [],
            "stateMutability": "nonpayable"
        },
        {
            "type": "function",
            "name": "safeTransferFrom",
            "inputs": [
                {
                    "name": "from",
                    "type": "address",
                    "internalType": "address"
                },
                {
                    "name": "to",
                    "type": "address",
                    "internalType": "address"
                },
                {
                    "name": "id",
                    "type": "uint256",
                    "internalType": "uint256"
                },
                {
                    "name": "amount",
                    "type": "uint256",
                    "internalType": "uint256"
                },
                {
                    "name": "data",
                    "type": "bytes",
                    "internalType": "bytes"
                }
            ],
            "outputs": [],
            "stateMutability": "nonpayable"
        },
        {
            "type": "function",
            "name": "setApprovalForAll",
            "inputs": [
                {
                    "name": "operator",
                    "type": "address",
                    "internalType": "address"
                },
                {
                    "name": "approved",
                    "type": "bool",
                    "internalType": "bool"
                }
            ],
            "outputs": [],
            "stateMutability": "nonpayable"
        },
        {
            "type": "function",
            "name": "supportsInterface",
            "inputs": [
                {
                    "name": "interfaceId",
                    "type": "bytes4",
                    "internalType": "bytes4"
                }
            ],
            "outputs": [
                {
                    "name": "",
                    "type": "bool",
                    "internalType": "bool"
                }
            ],
            "stateMutability": "view"
        },
        {
            "type": "function",
            "name": "transferOwnership",
            "inputs": [
                {
                    "name": "newOwner",
                    "type": "address",
                    "internalType": "address"
                }
            ],
            "outputs": [],
            "stateMutability": "nonpayable"
        },
        {
            "type": "function",
            "name": "uri",
            "inputs": [
                {
                    "name": "",
                    "type": "uint256",
                    "internalType": "uint256"
                }
            ],
            "outputs": [
                {
                    "name": "",
                    "type": "string",
                    "internalType": "string"
                }
            ],
            "stateMutability": "view"
        },
        {
            "type": "event",
            "name": "ApprovalForAll",
            "inputs": [
                {
                    "name": "account",
                    "type": "address",
                    "indexed": true,
                    "internalType": "address"
                },
                {
                    "name": "operator",
                    "type": "address",
                    "indexed": true,
                    "internalType": "address"
                },
                {
                    "name": "approved",
                    "type": "bool",
                    "indexed": false,
                    "internalType": "bool"
                }
            ],
            "anonymous": false
        },
        {
            "type": "event",
            "name": "OwnershipTransferred",
            "inputs": [
                {
                    "name": "previousOwner",
                    "type": "address",
                    "indexed": true,
                    "internalType": "address"
                },
                {
                    "name": "newOwner",
                    "type": "address",
                    "indexed": true,
                    "internalType": "address"
                }
            ],
            "anonymous": false
        },
        {
            "type": "event",
            "name": "TransferBatch",
            "inputs": [
                {
                    "name": "operator",
                    "type": "address",
                    "indexed": true,
                    "internalType": "address"
                },
                {
                    "name": "from",
                    "type": "address",
                    "indexed": true,
                    "internalType": "address"
                },
                {
                    "name": "to",
                    "type": "address",
                    "indexed": true,
                    "internalType": "address"
                },
                {
                    "name": "ids",
                    "type": "uint256[]",
                    "indexed": false,
                    "internalType": "uint256[]"
                },
                {
                    "name": "values",
                    "type": "uint256[]",
                    "indexed": false,
                    "internalType": "uint256[]"
                }
            ],
            "anonymous": false
        },
        {
            "type": "event",
            "name": "TransferSingle",
            "inputs": [
                {
                    "name": "operator",
                    "type": "address",
                    "indexed": true,
                    "internalType": "address"
                },
                {
                    "name": "from",
                    "type": "address",
                    "indexed": true,
                    "internalType": "address"
                },
                {
                    "name": "to",
                    "type": "address",
                    "indexed": true,
                    "internalType": "address"
                },
                {
                    "name": "id",
                    "type": "uint256",
                    "indexed": false,
                    "internalType": "uint256"
                },
                {
                    "name": "value",
                    "type": "uint256",
                    "indexed": false,
                    "internalType": "uint256"
                }
            ],
            "anonymous": false
        },
        {
            "type": "event",
            "name": "URI",
            "inputs": [
                {
                    "name": "value",
                    "type": "string",
                    "indexed": false,
                    "internalType": "string"
                },
                {
                    "name": "id",
                    "type": "uint256",
                    "indexed": true,
                    "internalType": "uint256"
                }
            ],
            "anonymous": false
        }
    ],
    "bytecode": {
        "object": "0x608060405234801561001057600080fd5b5060408051808201909152600a8152694164647265737354616760b01b602082015261003b8161004f565b50600160035561004a3361005f565b610211565b600261005b8282610152565b5050565b600480546001600160a01b038381166001600160a01b0319831681179093556040519116919082907f8be0079c531659141344cd1fd0a4f28419497f9722a3daafe3b4186f6b6457e090600090a35050565b634e487b7160e01b600052604160045260246000fd5b600181811c908216806100db57607f821691505b6020821081036100fb57634e487b7160e01b600052602260045260246000fd5b50919050565b601f82111561014d576000816000526020600020601f850160051c8101602086101561012a5750805b601f850160051c820191505b8181101561014957828155600101610136565b5050505b505050565b81516001600160401b0381111561016b5761016b6100b1565b61017f8161017984546100c7565b84610101565b602080601f8311600181146101b4576000841561019c5750858301515b600019600386901b1c1916600185901b178555610149565b600085815260208120601f198616915b828110156101e3578886015182559484019460019091019084016101c4565b50858210156102015787850151600019600388901b60f8161c191681555b5050505050600190811b01905550565b611d5d806102206000396000f3fe608060405234801561001057600080fd5b506004361061010a5760003560e01c806357b09909116100a2578063a22cb46511610071578063a22cb46514610271578063e43d4c1b14610284578063e985e9c5146102a4578063f242432a146102e0578063f2fde38b146102f357600080fd5b806357b099091461020757806359806b951461021a578063715018a61461024e5780638da5cb5b1461025657600080fd5b80632791522e116100de5780632791522e146101ac5780632eb2c2d6146101c15780634e1273f4146101d457806352ab42bd146101f457600080fd5b8062fdd58e1461010f57806301ffc9a7146101355780630d8fa8dc146101585780630e89341c1461018c575b600080fd5b61012261011d366004611421565b610306565b6040519081526020015b60405180910390f35b610148610143366004611461565b61039f565b604051901515815260200161012c565b610148610166366004611485565b600660209081526000938452604080852082529284528284209052825290205460ff1681565b61019f61019a3660046114c1565b6103ef565b60405161012c9190611520565b6101bf6101ba366004611421565b610483565b005b6101bf6101cf366004611684565b6105b5565b6101e76101e236600461172e565b610601565b60405161012c9190611835565b6101bf610202366004611848565b610723565b6101bf610215366004611421565b61078f565b610148610228366004611485565b600560209081526000938452604080852082529284528284209052825290205460ff1681565b6101bf6108b5565b6004546040516001600160a01b03909116815260200161012c565b6101bf61027f36600461190e565b6108c9565b6101226102923660046114c1565b60076020526000908152604090205481565b6101486102b236600461194a565b6001600160a01b03918216600090815260016020908152604080832093909416825291909152205460ff1690565b6101bf6102ee36600461197d565b6108d4565b6101bf6103013660046119e2565b610919565b60006001600160a01b0383166103765760405162461bcd60e51b815260206004820152602a60248201527f455243313135353a2061646472657373207a65726f206973206e6f742061207660448201526930b634b21037bbb732b960b11b60648201526084015b60405180910390fd5b506000818152602081815260408083206001600160a01b03861684529091529020545b92915050565b60006001600160e01b03198216636cdb3d1360e11b14806103d057506001600160e01b031982166303a24d0760e21b145b8061039957506301ffc9a760e01b6001600160e01b0319831614610399565b6060600280546103fe906119fd565b80601f016020809104026020016040519081016040528092919081815260200182805461042a906119fd565b80156104775780601f1061044c57610100808354040283529160200191610477565b820191906000526020600020905b81548152906001019060200180831161045a57829003601f168201915b50505050509050919050565b61048b610992565b3360009081526005602090815260408083206001600160a01b0386168452825280832084845290915290205460ff166104f75760405162461bcd60e51b815260206004820152600e60248201526d1b9bdd081d1859d9d959081e595d60921b604482015260640161036d565b3360009081526006602090815260408083206001600160a01b0386168452825280832084845290915290205460ff16156105655760405162461bcd60e51b815260206004820152600f60248201526e185b1c9958591e481c995d9bdad959608a1b604482015260640161036d565b610571828260016109eb565b3360009081526006602090815260408083206001600160a01b038616845282528083208484529091529020805460ff191660011790556105b16001600355565b5050565b6001600160a01b0385163314806105d157506105d185336102b2565b6105ed5760405162461bcd60e51b815260040161036d90611a37565b6105fa8585858585610b80565b5050505050565b606081518351146106665760405162461bcd60e51b815260206004820152602960248201527f455243313135353a206163636f756e747320616e6420696473206c656e677468604482015268040dad2e6dac2e8c6d60bb1b606482015260840161036d565b6000835167ffffffffffffffff81111561068257610682611533565b6040519080825280602002602001820160405280156106ab578160200160208202803683370190505b50905060005b845181101561071b576106f68582815181106106cf576106cf611a85565b60200260200101518583815181106106e9576106e9611a85565b6020026020010151610306565b82828151811061070857610708611a85565b60209081029190910101526001016106b1565b509392505050565b61072b610d64565b60005b825181101561078a5781818151811061074957610749611a85565b60200260200101516007600085848151811061076757610767611a85565b60209081029190910181015182528101919091526040016000205560010161072e565b505050565b610797610992565b3360009081526005602090815260408083206001600160a01b0386168452825280832084845290915290205460ff16156108045760405162461bcd60e51b815260206004820152600e60248201526d185b1c9958591e481d1859d9d95960921b604482015260640161036d565b60008181526007602052604081205490036108595760405162461bcd60e51b81526020600482015260156024820152741b9bdd081d1859c81d1e5c19481a5b9a5d081e595d605a1b604482015260640161036d565b6108758282600160405180602001604052806000815250610dbe565b3360009081526005602090815260408083206001600160a01b038616845282528083208484529091529020805460ff191660011790556105b16001600355565b6108bd610d64565b6108c76000610ed8565b565b6105b1338383610f2a565b6001600160a01b0385163314806108f057506108f085336102b2565b61090c5760405162461bcd60e51b815260040161036d90611a37565b6105fa858585858561100a565b610921610d64565b6001600160a01b0381166109865760405162461bcd60e51b815260206004820152602660248201527f4f776e61626c653a206e6577206f776e657220697320746865207a65726f206160448201526564647265737360d01b606482015260840161036d565b61098f81610ed8565b50565b6002600354036109e45760405162461bcd60e51b815260206004820152601f60248201527f5265656e7472616e637947756172643a207265656e7472616e742063616c6c00604482015260640161036d565b6002600355565b6001600160a01b038316610a4d5760405162461bcd60e51b815260206004820152602360248201527f455243313135353a206275726e2066726f6d20746865207a65726f206164647260448201526265737360e81b606482015260840161036d565b336000610a5984611142565b90506000610a6684611142565b9050610a868387600085856040518060200160405280600081525061118d565b6000858152602081815260408083206001600160a01b038a16845290915290205484811015610b035760405162461bcd60e51b8152602060048201526024808201527f455243313135353a206275726e20616d6f756e7420657863656564732062616c604482015263616e636560e01b606482015260840161036d565b6000868152602081815260408083206001600160a01b038b81168086529184528285208a8703905582518b81529384018a90529092908816917fc3d58168c5ae7397731d063d5bbf3d657854427343f4c083240f7aacaa2d0f62910160405180910390a46040805160208101909152600090525b50505050505050565b8151835114610be25760405162461bcd60e51b815260206004820152602860248201527f455243313135353a2069647320616e6420616d6f756e7473206c656e677468206044820152670dad2e6dac2e8c6d60c31b606482015260840161036d565b6001600160a01b038416610c085760405162461bcd60e51b815260040161036d90611a9b565b33610c1781878787878761118d565b60005b8451811015610cf6576000858281518110610c3757610c37611a85565b602002602001015190506000858381518110610c5557610c55611a85565b602090810291909101810151600084815280835260408082206001600160a01b038e168352909352919091205490915081811015610ca55760405162461bcd60e51b815260040161036d90611ae0565b6000838152602081815260408083206001600160a01b038e8116855292528083208585039055908b16825281208054849290610ce2908490611b2a565b909155505060019093019250610c1a915050565b50846001600160a01b0316866001600160a01b0316826001600160a01b03167f4a39dc06d4c0dbc64b70af90fd698a233a518aa5d07e595d983b8c0526c8f7fb8787604051610d46929190611b4b565b60405180910390a4610d5c8187878787876111ef565b505050505050565b6004546001600160a01b031633146108c75760405162461bcd60e51b815260206004820181905260248201527f4f776e61626c653a2063616c6c6572206973206e6f7420746865206f776e6572604482015260640161036d565b6001600160a01b038416610e1e5760405162461bcd60e51b815260206004820152602160248201527f455243313135353a206d696e7420746f20746865207a65726f206164647265736044820152607360f81b606482015260840161036d565b336000610e2a85611142565b90506000610e3785611142565b9050610e488360008985858961118d565b6000868152602081815260408083206001600160a01b038b16845290915281208054879290610e78908490611b2a565b909155505060408051878152602081018790526001600160a01b03808a1692600092918716917fc3d58168c5ae7397731d063d5bbf3d657854427343f4c083240f7aacaa2d0f62910160405180910390a4610b778360008989898961134a565b600480546001600160a01b038381166001600160a01b0319831681179093556040519116919082907f8be0079c531659141344cd1fd0a4f28419497f9722a3daafe3b4186f6b6457e090600090a35050565b816001600160a01b0316836001600160a01b031603610f9d5760405162461bcd60e51b815260206004820152602960248201527f455243313135353a2073657474696e6720617070726f76616c20737461747573604482015268103337b91039b2b63360b91b606482015260840161036d565b6001600160a01b03838116600081815260016020908152604080832094871680845294825291829020805460ff191686151590811790915591519182527f17307eab39ab6107e8899845ad3d59bd9653f200f220920489ca2b5937696c31910160405180910390a3505050565b6001600160a01b0384166110305760405162461bcd60e51b815260040161036d90611a9b565b33600061103c85611142565b9050600061104985611142565b905061105983898985858961118d565b6000868152602081815260408083206001600160a01b038c1684529091529020548581101561109a5760405162461bcd60e51b815260040161036d90611ae0565b6000878152602081815260408083206001600160a01b038d8116855292528083208985039055908a168252812080548892906110d7908490611b2a565b909155505060408051888152602081018890526001600160a01b03808b16928c821692918816917fc3d58168c5ae7397731d063d5bbf3d657854427343f4c083240f7aacaa2d0f62910160405180910390a4611137848a8a8a8a8a61134a565b505050505050505050565b6040805160018082528183019092526060916000919060208083019080368337019050509050828160008151811061117c5761117c611a85565b602090810291909101015292915050565b6001600160a01b03851615806111aa57506001600160a01b038416155b6111ea5760405162461bcd60e51b815260206004820152601160248201527029a12a1031b0b73a103a3930b739b332b960791b604482015260640161036d565b610d5c565b6001600160a01b0384163b15610d5c5760405163bc197c8160e01b81526001600160a01b0385169063bc197c81906112339089908990889088908890600401611b79565b6020604051808303816000875af192505050801561126e575060408051601f3d908101601f1916820190925261126b91810190611bd7565b60015b61131a5761127a611bf4565b806308c379a0036112b3575061128e611c10565b8061129957506112b5565b8060405162461bcd60e51b815260040161036d9190611520565b505b60405162461bcd60e51b815260206004820152603460248201527f455243313135353a207472616e7366657220746f206e6f6e2d455243313135356044820152732932b1b2b4bb32b91034b6b83632b6b2b73a32b960611b606482015260840161036d565b6001600160e01b0319811663bc197c8160e01b14610b775760405162461bcd60e51b815260040161036d90611c9a565b6001600160a01b0384163b15610d5c5760405163f23a6e6160e01b81526001600160a01b0385169063f23a6e619061138e9089908990889088908890600401611ce2565b6020604051808303816000875af19250505080156113c9575060408051601f3d908101601f191682019092526113c691810190611bd7565b60015b6113d55761127a611bf4565b6001600160e01b0319811663f23a6e6160e01b14610b775760405162461bcd60e51b815260040161036d90611c9a565b80356001600160a01b038116811461141c57600080fd5b919050565b6000806040838503121561143457600080fd5b61143d83611405565b946020939093013593505050565b6001600160e01b03198116811461098f57600080fd5b60006020828403121561147357600080fd5b813561147e8161144b565b9392505050565b60008060006060848603121561149a57600080fd5b6114a384611405565b92506114b160208501611405565b9150604084013590509250925092565b6000602082840312156114d357600080fd5b5035919050565b6000815180845260005b81811015611500576020818501810151868301820152016114e4565b506000602082860101526020601f19601f83011685010191505092915050565b60208152600061147e60208301846114da565b634e487b7160e01b600052604160045260246000fd5b601f8201601f1916810167ffffffffffffffff8111828210171561156f5761156f611533565b6040525050565b600067ffffffffffffffff82111561159057611590611533565b5060051b60200190565b600082601f8301126115ab57600080fd5b813560206115b882611576565b6040516115c58282611549565b80915083815260208101915060208460051b8701019350868411156115e957600080fd5b602086015b8481101561160557803583529183019183016115ee565b509695505050505050565b600082601f83011261162157600080fd5b813567ffffffffffffffff81111561163b5761163b611533565b604051611652601f8301601f191660200182611549565b81815284602083860101111561166757600080fd5b816020850160208301376000918101602001919091529392505050565b600080600080600060a0868803121561169c57600080fd5b6116a586611405565b94506116b360208701611405565b9350604086013567ffffffffffffffff808211156116d057600080fd5b6116dc89838a0161159a565b945060608801359150808211156116f257600080fd5b6116fe89838a0161159a565b9350608088013591508082111561171457600080fd5b5061172188828901611610565b9150509295509295909350565b6000806040838503121561174157600080fd5b823567ffffffffffffffff8082111561175957600080fd5b818501915085601f83011261176d57600080fd5b8135602061177a82611576565b6040516117878282611549565b83815260059390931b85018201928281019150898411156117a757600080fd5b948201945b838610156117cc576117bd86611405565b825294820194908201906117ac565b965050860135925050808211156117e257600080fd5b506117ef8582860161159a565b9150509250929050565b60008151808452602080850194506020840160005b8381101561182a5781518752958201959082019060010161180e565b509495945050505050565b60208152600061147e60208301846117f9565b6000806040838503121561185b57600080fd5b823567ffffffffffffffff8082111561187357600080fd5b61187f8683870161159a565b935060209150818501358181111561189657600080fd5b85019050601f810186136118a957600080fd5b80356118b481611576565b6040516118c18282611549565b82815260059290921b83018401918481019150888311156118e157600080fd5b928401925b828410156118ff578335825292840192908401906118e6565b80955050505050509250929050565b6000806040838503121561192157600080fd5b61192a83611405565b91506020830135801515811461193f57600080fd5b809150509250929050565b6000806040838503121561195d57600080fd5b61196683611405565b915061197460208401611405565b90509250929050565b600080600080600060a0868803121561199557600080fd5b61199e86611405565b94506119ac60208701611405565b93506040860135925060608601359150608086013567ffffffffffffffff8111156119d657600080fd5b61172188828901611610565b6000602082840312156119f457600080fd5b61147e82611405565b600181811c90821680611a1157607f821691505b602082108103611a3157634e487b7160e01b600052602260045260246000fd5b50919050565b6020808252602e908201527f455243313135353a2063616c6c6572206973206e6f7420746f6b656e206f776e60408201526d195c881bdc88185c1c1c9bdd995960921b606082015260800190565b634e487b7160e01b600052603260045260246000fd5b60208082526025908201527f455243313135353a207472616e7366657220746f20746865207a65726f206164604082015264647265737360d81b606082015260800190565b6020808252602a908201527f455243313135353a20696e73756666696369656e742062616c616e636520666f60408201526939103a3930b739b332b960b11b606082015260800190565b8082018082111561039957634e487b7160e01b600052601160045260246000fd5b604081526000611b5e60408301856117f9565b8281036020840152611b7081856117f9565b95945050505050565b6001600160a01b0386811682528516602082015260a060408201819052600090611ba5908301866117f9565b8281036060840152611bb781866117f9565b90508281036080840152611bcb81856114da565b98975050505050505050565b600060208284031215611be957600080fd5b815161147e8161144b565b600060033d1115611c0d5760046000803e5060005160e01c5b90565b600060443d1015611c1e5790565b6040516003193d81016004833e81513d67ffffffffffffffff8160248401118184111715611c4e57505050505090565b8285019150815181811115611c665750505050505090565b843d8701016020828501011115611c805750505050505090565b611c8f60208286010187611549565b509095945050505050565b60208082526028908201527f455243313135353a204552433131353552656365697665722072656a656374656040820152676420746f6b656e7360c01b606082015260800190565b6001600160a01b03868116825285166020820152604081018490526060810183905260a060808201819052600090611d1c908301846114da565b97965050505050505056fea2646970667358221220b9e9782a9a08bab34659be5ae3cc9922813ee5635ff7d9e082b30a3f29c7e59464736f6c63430008190033",
        "linkReferences": {}
    },
    "methodIdentifiers": {
        "addTagType(uint256[],bytes32[])": "52ab42bd",
        "balanceOf(address,uint256)": "00fdd58e",
        "balanceOfBatch(address[],uint256[])": "4e1273f4",
        "idToTagType(uint256)": "e43d4c1b",
        "isApprovedForAll(address,address)": "e985e9c5",
        "isRevoked(address,address,uint256)": "0d8fa8dc",
        "isTagged(address,address,uint256)": "59806b95",
        "mintAddressTagSBT(address,uint256)": "57b09909",
        "owner()": "8da5cb5b",
        "renounceOwnership()": "715018a6",
        "revokeAddressTagSBT(address,uint256)": "2791522e",
        "safeBatchTransferFrom(address,address,uint256[],uint256[],bytes)": "2eb2c2d6",
        "safeTransferFrom(address,address,uint256,uint256,bytes)": "f242432a",
        "setApprovalForAll(address,bool)": "a22cb465",
        "supportsInterface(bytes4)": "01ffc9a7",
        "transferOwnership(address)": "f2fde38b",
        "uri(uint256)": "0e89341c"
    },
    "id": 33
}